{
  "contractName": "SwapExamples",
  "abi": [
    {
      "inputs": [
        {
          "internalType": "contract ISwapRouter",
          "name": "_swapRouter",
          "type": "address"
        }
      ],
      "stateMutability": "nonpayable",
      "type": "constructor"
    },
    {
      "inputs": [],
      "name": "USDC",
      "outputs": [
        {
          "internalType": "address",
          "name": "",
          "type": "address"
        }
      ],
      "stateMutability": "view",
      "type": "function"
    },
    {
      "inputs": [],
      "name": "poolFee",
      "outputs": [
        {
          "internalType": "uint24",
          "name": "",
          "type": "uint24"
        }
      ],
      "stateMutability": "view",
      "type": "function"
    },
    {
      "inputs": [],
      "name": "swapRouter",
      "outputs": [
        {
          "internalType": "contract ISwapRouter",
          "name": "",
          "type": "address"
        }
      ],
      "stateMutability": "view",
      "type": "function"
    },
    {
      "inputs": [
        {
          "internalType": "address",
          "name": "from",
          "type": "address"
        },
        {
          "internalType": "address",
          "name": "to",
          "type": "address"
        },
        {
          "internalType": "uint256",
          "name": "amountIn",
          "type": "uint256"
        }
      ],
      "name": "swapExactInputSingle",
      "outputs": [
        {
          "internalType": "uint256",
          "name": "amountOut",
          "type": "uint256"
        }
      ],
      "stateMutability": "nonpayable",
      "type": "function"
    },
    {
      "inputs": [
        {
          "internalType": "address",
          "name": "from",
          "type": "address"
        },
        {
          "internalType": "address",
          "name": "to",
          "type": "address"
        },
        {
          "internalType": "uint256",
          "name": "amountOut",
          "type": "uint256"
        },
        {
          "internalType": "uint256",
          "name": "amountInMaximum",
          "type": "uint256"
        }
      ],
      "name": "swapExactOutputSingle",
      "outputs": [
        {
          "internalType": "uint256",
          "name": "amountIn",
          "type": "uint256"
        }
      ],
      "stateMutability": "nonpayable",
      "type": "function"
    }
  ],
  "bytecode": "0x60a06040523480156200001157600080fd5b506040516200114e3803806200114e83398181016040528101906200003791906200008c565b8073ffffffffffffffffffffffffffffffffffffffff1660808173ffffffffffffffffffffffffffffffffffffffff1660601b81525050506200011a565b600081519050620000868162000100565b92915050565b6000602082840312156200009f57600080fd5b6000620000af8482850162000075565b91505092915050565b6000620000c582620000e0565b9050919050565b6000620000d982620000b8565b9050919050565b600073ffffffffffffffffffffffffffffffffffffffff82169050919050565b6200010b81620000cc565b81146200011757600080fd5b50565b60805160601c610ff26200015c600039600081816101480152818161020d015281816102c60152818161030e01528181610344015261040a0152610ff26000f3fe608060405234801561001057600080fd5b50600436106100575760003560e01c8063089fe6aa1461005c57806389a302711461007a578063bc96faa914610098578063c31c9c07146100c8578063ceb92012146100e6575b600080fd5b610064610116565b6040516100719190610e09565b60405180910390f35b61008261011c565b60405161008f9190610cdb565b60405180910390f35b6100b260048036038101906100ad9190610962565b610134565b6040516100bf9190610e24565b60405180910390f35b6100d061030c565b6040516100dd9190610d56565b60405180910390f35b61010060048036038101906100fb9190610913565b610330565b60405161010d9190610e24565b60405180910390f35b610bb881565b73a0b86991c6218b36c1d19d4a2e9eb0ce3606eb4881565b6000610142853330856104bd565b61016d857f000000000000000000000000000000000000000000000000000000000000000084610615565b60006040518061010001604052808773ffffffffffffffffffffffffffffffffffffffff1681526020018673ffffffffffffffffffffffffffffffffffffffff168152602001610bb862ffffff1681526020013373ffffffffffffffffffffffffffffffffffffffff168152602001428152602001858152602001848152602001600073ffffffffffffffffffffffffffffffffffffffff1681525090507f000000000000000000000000000000000000000000000000000000000000000073ffffffffffffffffffffffffffffffffffffffff1663db3e2198826040518263ffffffff1660e01b81526004016102649190610ded565b602060405180830381600087803b15801561027e57600080fd5b505af1158015610292573d6000803e3d6000fd5b505050506040513d601f19601f820116820180604052508101906102b691906109ee565b915082821015610303576102ec867f00000000000000000000000000000000000000000000000000000000000000006000610615565b610302863384866102fd9190610e66565b61076a565b5b50949350505050565b7f000000000000000000000000000000000000000000000000000000000000000081565b600061033e843330856104bd565b610369847f000000000000000000000000000000000000000000000000000000000000000084610615565b60006040518061010001604052808673ffffffffffffffffffffffffffffffffffffffff1681526020018573ffffffffffffffffffffffffffffffffffffffff168152602001610bb862ffffff1681526020013373ffffffffffffffffffffffffffffffffffffffff16815260200142815260200184815260200160008152602001600073ffffffffffffffffffffffffffffffffffffffff1681525090507f000000000000000000000000000000000000000000000000000000000000000073ffffffffffffffffffffffffffffffffffffffff1663414bf389826040518263ffffffff1660e01b81526004016104619190610dd1565b602060405180830381600087803b15801561047b57600080fd5b505af115801561048f573d6000803e3d6000fd5b505050506040513d601f19601f820116820180604052508101906104b391906109ee565b9150509392505050565b6000808573ffffffffffffffffffffffffffffffffffffffff166323b872dd60e01b8686866040516024016104f493929190610cf6565b604051602081830303815290604052907bffffffffffffffffffffffffffffffffffffffffffffffffffffffff19166020820180517bffffffffffffffffffffffffffffffffffffffffffffffffffffffff838183161783525050505060405161055e9190610cc4565b6000604051808303816000865af19150503d806000811461059b576040519150601f19603f3d011682016040523d82523d6000602084013e6105a0565b606091505b50915091508180156105ce57506000815114806105cd5750808060200190518101906105cc91906109c5565b5b5b61060d576040517f08c379a000000000000000000000000000000000000000000000000000000000815260040161060490610db1565b60405180910390fd5b505050505050565b6000808473ffffffffffffffffffffffffffffffffffffffff1663095ea7b360e01b858560405160240161064a929190610d2d565b604051602081830303815290604052907bffffffffffffffffffffffffffffffffffffffffffffffffffffffff19166020820180517bffffffffffffffffffffffffffffffffffffffffffffffffffffffff83818316178352505050506040516106b49190610cc4565b6000604051808303816000865af19150503d80600081146106f1576040519150601f19603f3d011682016040523d82523d6000602084013e6106f6565b606091505b5091509150818015610724575060008151148061072357508080602001905181019061072291906109c5565b5b5b610763576040517f08c379a000000000000000000000000000000000000000000000000000000000815260040161075a90610d71565b60405180910390fd5b5050505050565b6000808473ffffffffffffffffffffffffffffffffffffffff1663a9059cbb60e01b858560405160240161079f929190610d2d565b604051602081830303815290604052907bffffffffffffffffffffffffffffffffffffffffffffffffffffffff19166020820180517bffffffffffffffffffffffffffffffffffffffffffffffffffffffff83818316178352505050506040516108099190610cc4565b6000604051808303816000865af19150503d8060008114610846576040519150601f19603f3d011682016040523d82523d6000602084013e61084b565b606091505b5091509150818015610879575060008151148061087857508080602001905181019061087791906109c5565b5b5b6108b8576040517f08c379a00000000000000000000000000000000000000000000000000000000081526004016108af90610d91565b60405180910390fd5b5050505050565b6000813590506108ce81610f77565b92915050565b6000815190506108e381610f8e565b92915050565b6000813590506108f881610fa5565b92915050565b60008151905061090d81610fa5565b92915050565b60008060006060848603121561092857600080fd5b6000610936868287016108bf565b9350506020610947868287016108bf565b9250506040610958868287016108e9565b9150509250925092565b6000806000806080858703121561097857600080fd5b6000610986878288016108bf565b9450506020610997878288016108bf565b93505060406109a8878288016108e9565b92505060606109b9878288016108e9565b91505092959194509250565b6000602082840312156109d757600080fd5b60006109e5848285016108d4565b91505092915050565b600060208284031215610a0057600080fd5b6000610a0e848285016108fe565b91505092915050565b610a2081610e9a565b82525050565b610a2f81610e9a565b82525050565b6000610a4082610e3f565b610a4a8185610e4a565b9350610a5a818560208601610f15565b80840191505092915050565b610a6f81610ef1565b82525050565b6000610a82600283610e55565b91507f53410000000000000000000000000000000000000000000000000000000000006000830152602082019050919050565b6000610ac2600283610e55565b91507f53540000000000000000000000000000000000000000000000000000000000006000830152602082019050919050565b6000610b02600383610e55565b91507f53544600000000000000000000000000000000000000000000000000000000006000830152602082019050919050565b61010082016000820151610b4c6000850182610a17565b506020820151610b5f6020850182610a17565b506040820151610b726040850182610c88565b506060820151610b856060850182610a17565b506080820151610b986080850182610ca6565b5060a0820151610bab60a0850182610ca6565b5060c0820151610bbe60c0850182610ca6565b5060e0820151610bd160e0850182610c79565b50505050565b61010082016000820151610bee6000850182610a17565b506020820151610c016020850182610a17565b506040820151610c146040850182610c88565b506060820151610c276060850182610a17565b506080820151610c3a6080850182610ca6565b5060a0820151610c4d60a0850182610ca6565b5060c0820151610c6060c0850182610ca6565b5060e0820151610c7360e0850182610c79565b50505050565b610c8281610eb8565b82525050565b610c9181610ed8565b82525050565b610ca081610ed8565b82525050565b610caf81610ee7565b82525050565b610cbe81610ee7565b82525050565b6000610cd08284610a35565b915081905092915050565b6000602082019050610cf06000830184610a26565b92915050565b6000606082019050610d0b6000830186610a26565b610d186020830185610a26565b610d256040830184610cb5565b949350505050565b6000604082019050610d426000830185610a26565b610d4f6020830184610cb5565b9392505050565b6000602082019050610d6b6000830184610a66565b92915050565b60006020820190508181036000830152610d8a81610a75565b9050919050565b60006020820190508181036000830152610daa81610ab5565b9050919050565b60006020820190508181036000830152610dca81610af5565b9050919050565b600061010082019050610de76000830184610b35565b92915050565b600061010082019050610e036000830184610bd7565b92915050565b6000602082019050610e1e6000830184610c97565b92915050565b6000602082019050610e396000830184610cb5565b92915050565b600081519050919050565b600081905092915050565b600082825260208201905092915050565b6000610e7182610ee7565b9150610e7c83610ee7565b925082821015610e8f57610e8e610f48565b5b828203905092915050565b6000610ea582610eb8565b9050919050565b60008115159050919050565b600073ffffffffffffffffffffffffffffffffffffffff82169050919050565b600062ffffff82169050919050565b6000819050919050565b6000610efc82610f03565b9050919050565b6000610f0e82610eb8565b9050919050565b60005b83811015610f33578082015181840152602081019050610f18565b83811115610f42576000848401525b50505050565b7f4e487b7100000000000000000000000000000000000000000000000000000000600052601160045260246000fd5b610f8081610e9a565b8114610f8b57600080fd5b50565b610f9781610eac565b8114610fa257600080fd5b50565b610fae81610ee7565b8114610fb957600080fd5b5056fea264697066735822122002482f0510376d48c886f34dde719aa19da98bb9dc6c8c47d4b76ce2260fa47664736f6c63430008000033",
  "immutableReferences": {
    "7": [
      {
        "length": 32,
        "start": 328
      },
      {
        "length": 32,
        "start": 525
      },
      {
        "length": 32,
        "start": 710
      },
      {
        "length": 32,
        "start": 782
      },
      {
        "length": 32,
        "start": 836
      },
      {
        "length": 32,
        "start": 1034
      }
    ]
  },
  "source": "// SPDX-License-Identifier: GPL-2.0-or-later\r\npragma solidity =0.8.0;\r\npragma abicoder v2;\r\n\r\nimport './TransferHelper.sol';\r\nimport './ISwapRouter.sol';\r\n\r\ncontract SwapExamples {\r\n\r\n    ISwapRouter public immutable swapRouter;\r\n    address public constant USDC = 0xA0b86991c6218b36c1d19D4a2e9Eb0cE3606eB48;\r\n\r\n\r\n    uint24 public constant poolFee = 3000;\r\n\r\n    constructor(ISwapRouter _swapRouter) {\r\n        swapRouter = _swapRouter;\r\n    }\r\n    function swapExactInputSingle(address from, address to,uint256 amountIn) external returns (uint256 amountOut) {\r\n  \r\n        TransferHelper.safeTransferFrom(from, msg.sender, address(this), amountIn);\r\n\r\n        TransferHelper.safeApprove(from, address(swapRouter), amountIn);\r\n\r\n        ISwapRouter.ExactInputSingleParams memory params =\r\n            ISwapRouter.ExactInputSingleParams({\r\n                tokenIn: from,\r\n                tokenOut: to,\r\n                fee: poolFee,\r\n                recipient: msg.sender,\r\n                deadline: block.timestamp,\r\n                amountIn: amountIn,\r\n                amountOutMinimum: 0,\r\n                sqrtPriceLimitX96: 0\r\n            });\r\n\r\n        amountOut = swapRouter.exactInputSingle(params);\r\n    }\r\n\r\n    function swapExactOutputSingle(address from, address to, uint256 amountOut, uint256 amountInMaximum) external returns (uint256 amountIn) {\r\n        TransferHelper.safeTransferFrom(from, msg.sender, address(this), amountInMaximum);\r\n        TransferHelper.safeApprove(from, address(swapRouter), amountInMaximum);\r\n\r\n        ISwapRouter.ExactOutputSingleParams memory params =\r\n            ISwapRouter.ExactOutputSingleParams({\r\n                tokenIn: from,\r\n                tokenOut: to,\r\n                fee: poolFee,\r\n                recipient: msg.sender,\r\n                deadline: block.timestamp,\r\n                amountOut: amountOut,\r\n                amountInMaximum: amountInMaximum,\r\n                sqrtPriceLimitX96: 0\r\n            });\r\n\r\n        amountIn = swapRouter.exactOutputSingle(params);\r\n        if (amountIn < amountInMaximum) {\r\n            TransferHelper.safeApprove(from, address(swapRouter), 0);\r\n            TransferHelper.safeTransfer(from, msg.sender, amountInMaximum - amountIn);\r\n        }\r\n    }\r\n}",
  "sourcePath": "/workspace/eth-swap/contracts/DpiXels.sol",
  "compiler": {
    "name": "solc",
    "version": "0.8.0+commit.c7dfd78e.Emscripten.clang"
  },
  "schemaVersion": "3.4.3",
  "updatedAt": "2021-11-17T20:18:04.952Z",
  "devdoc": {
    "kind": "dev",
    "methods": {},
    "version": 1
  },
  "userdoc": {
    "kind": "user",
    "methods": {},
    "version": 1
  }
}